{
  "contractName": "ETHPool",
  "abi": [
    {
      "inputs": [],
      "stateMutability": "nonpayable",
      "type": "constructor"
    },
    {
      "inputs": [
        {
          "internalType": "uint256",
          "name": "prod1",
          "type": "uint256"
        }
      ],
      "name": "PRBMath__MulDivFixedPointOverflow",
      "type": "error"
    },
    {
      "inputs": [
        {
          "internalType": "uint256",
          "name": "prod1",
          "type": "uint256"
        },
        {
          "internalType": "uint256",
          "name": "denominator",
          "type": "uint256"
        }
      ],
      "name": "PRBMath__MulDivOverflow",
      "type": "error"
    },
    {
      "anonymous": false,
      "inputs": [
        {
          "indexed": true,
          "internalType": "bytes32",
          "name": "role",
          "type": "bytes32"
        },
        {
          "indexed": true,
          "internalType": "bytes32",
          "name": "previousAdminRole",
          "type": "bytes32"
        },
        {
          "indexed": true,
          "internalType": "bytes32",
          "name": "newAdminRole",
          "type": "bytes32"
        }
      ],
      "name": "RoleAdminChanged",
      "type": "event"
    },
    {
      "anonymous": false,
      "inputs": [
        {
          "indexed": true,
          "internalType": "bytes32",
          "name": "role",
          "type": "bytes32"
        },
        {
          "indexed": true,
          "internalType": "address",
          "name": "account",
          "type": "address"
        },
        {
          "indexed": true,
          "internalType": "address",
          "name": "sender",
          "type": "address"
        }
      ],
      "name": "RoleGranted",
      "type": "event"
    },
    {
      "anonymous": false,
      "inputs": [
        {
          "indexed": true,
          "internalType": "bytes32",
          "name": "role",
          "type": "bytes32"
        },
        {
          "indexed": true,
          "internalType": "address",
          "name": "account",
          "type": "address"
        },
        {
          "indexed": true,
          "internalType": "address",
          "name": "sender",
          "type": "address"
        }
      ],
      "name": "RoleRevoked",
      "type": "event"
    },
    {
      "inputs": [],
      "name": "DEFAULT_ADMIN_ROLE",
      "outputs": [
        {
          "internalType": "bytes32",
          "name": "",
          "type": "bytes32"
        }
      ],
      "stateMutability": "view",
      "type": "function",
      "constant": true
    },
    {
      "inputs": [],
      "name": "ROLE_TEAM",
      "outputs": [
        {
          "internalType": "bytes32",
          "name": "",
          "type": "bytes32"
        }
      ],
      "stateMutability": "view",
      "type": "function",
      "constant": true
    },
    {
      "inputs": [],
      "name": "ROLE_USER",
      "outputs": [
        {
          "internalType": "bytes32",
          "name": "",
          "type": "bytes32"
        }
      ],
      "stateMutability": "view",
      "type": "function",
      "constant": true
    },
    {
      "inputs": [
        {
          "internalType": "bytes32",
          "name": "role",
          "type": "bytes32"
        }
      ],
      "name": "getRoleAdmin",
      "outputs": [
        {
          "internalType": "bytes32",
          "name": "",
          "type": "bytes32"
        }
      ],
      "stateMutability": "view",
      "type": "function",
      "constant": true
    },
    {
      "inputs": [
        {
          "internalType": "bytes32",
          "name": "role",
          "type": "bytes32"
        },
        {
          "internalType": "address",
          "name": "account",
          "type": "address"
        }
      ],
      "name": "grantRole",
      "outputs": [],
      "stateMutability": "nonpayable",
      "type": "function"
    },
    {
      "inputs": [
        {
          "internalType": "bytes32",
          "name": "role",
          "type": "bytes32"
        },
        {
          "internalType": "address",
          "name": "account",
          "type": "address"
        }
      ],
      "name": "hasRole",
      "outputs": [
        {
          "internalType": "bool",
          "name": "",
          "type": "bool"
        }
      ],
      "stateMutability": "view",
      "type": "function",
      "constant": true
    },
    {
      "inputs": [],
      "name": "lastRewardDate",
      "outputs": [
        {
          "internalType": "uint256",
          "name": "",
          "type": "uint256"
        }
      ],
      "stateMutability": "view",
      "type": "function",
      "constant": true
    },
    {
      "inputs": [
        {
          "internalType": "bytes32",
          "name": "role",
          "type": "bytes32"
        },
        {
          "internalType": "address",
          "name": "account",
          "type": "address"
        }
      ],
      "name": "renounceRole",
      "outputs": [],
      "stateMutability": "nonpayable",
      "type": "function"
    },
    {
      "inputs": [
        {
          "internalType": "bytes32",
          "name": "role",
          "type": "bytes32"
        },
        {
          "internalType": "address",
          "name": "account",
          "type": "address"
        }
      ],
      "name": "revokeRole",
      "outputs": [],
      "stateMutability": "nonpayable",
      "type": "function"
    },
    {
      "inputs": [],
      "name": "reward_pool",
      "outputs": [
        {
          "internalType": "uint256",
          "name": "",
          "type": "uint256"
        }
      ],
      "stateMutability": "view",
      "type": "function",
      "constant": true
    },
    {
      "inputs": [
        {
          "internalType": "bytes4",
          "name": "interfaceId",
          "type": "bytes4"
        }
      ],
      "name": "supportsInterface",
      "outputs": [
        {
          "internalType": "bool",
          "name": "",
          "type": "bool"
        }
      ],
      "stateMutability": "view",
      "type": "function",
      "constant": true
    },
    {
      "inputs": [],
      "name": "total_pool",
      "outputs": [
        {
          "internalType": "uint256",
          "name": "",
          "type": "uint256"
        }
      ],
      "stateMutability": "view",
      "type": "function",
      "constant": true
    },
    {
      "inputs": [],
      "name": "deposit",
      "outputs": [],
      "stateMutability": "payable",
      "type": "function",
      "payable": true
    },
    {
      "inputs": [],
      "name": "withdraw",
      "outputs": [],
      "stateMutability": "nonpayable",
      "type": "function"
    },
    {
      "inputs": [],
      "name": "balance",
      "outputs": [
        {
          "internalType": "uint256",
          "name": "",
          "type": "uint256"
        }
      ],
      "stateMutability": "view",
      "type": "function",
      "constant": true
    },
    {
      "inputs": [],
      "name": "depositReward",
      "outputs": [],
      "stateMutability": "payable",
      "type": "function",
      "payable": true
    },
    {
      "inputs": [],
      "name": "balanceReward",
      "outputs": [
        {
          "internalType": "uint256",
          "name": "",
          "type": "uint256"
        }
      ],
      "stateMutability": "view",
      "type": "function",
      "constant": true
    },
    {
      "inputs": [
        {
          "internalType": "bytes32",
          "name": "role",
          "type": "bytes32"
        },
        {
          "internalType": "address",
          "name": "account",
          "type": "address"
        }
      ],
      "name": "addRole",
      "outputs": [],
      "stateMutability": "nonpayable",
      "type": "function"
    },
    {
      "inputs": [
        {
          "internalType": "address",
          "name": "account",
          "type": "address"
        }
      ],
      "name": "addUserRole",
      "outputs": [],
      "stateMutability": "nonpayable",
      "type": "function"
    }
  ],
  "bytecode": "0x6080604052600060015560006002553480156200001b57600080fd5b5042600381905550620000557f765d2ed193fbd282ed21527947ee77384fa6e41387de264bcfdfcaffa63bfe4b336200005b60201b60201c565b620001be565b6200006d82826200014c60201b60201c565b6200014857600160008084815260200190815260200160002060000160008373ffffffffffffffffffffffffffffffffffffffff1673ffffffffffffffffffffffffffffffffffffffff16815260200190815260200160002060006101000a81548160ff021916908315150217905550620000ed620001b660201b60201c565b73ffffffffffffffffffffffffffffffffffffffff168173ffffffffffffffffffffffffffffffffffffffff16837f2f8788117e7eff1d82e926ec794901d17c78024a50270940304540a733656f0d60405160405180910390a45b5050565b600080600084815260200190815260200160002060000160008373ffffffffffffffffffffffffffffffffffffffff1673ffffffffffffffffffffffffffffffffffffffff16815260200190815260200160002060009054906101000a900460ff16905092915050565b600033905090565b61201c80620001ce6000396000f3fe6080604052600436106101145760003560e01c806386111379116100a0578063b69ef8a811610064578063b69ef8a81461036e578063b941719e14610399578063d0e30db0146103c4578063d547741f146103ce578063e959b38a146103f757610114565b8063861113791461028557806391d14854146102b05780639fb69b43146102ed578063a217fddf14610318578063ab646c261461034357610114565b806336568abe116100e757806336568abe146101e75780633ccfd60b1461021057806356cf15ad146102275780635ec2dc8d146102505780637f7c92a21461025a57610114565b806301ffc9a71461011957806316bfdd5614610156578063248a9ca3146101815780632f2ff15d146101be575b600080fd5b34801561012557600080fd5b50610140600480360381019061013b919061164a565b610420565b60405161014d9190611692565b60405180910390f35b34801561016257600080fd5b5061016b61049a565b60405161017891906116c6565b60405180910390f35b34801561018d57600080fd5b506101a860048036038101906101a39190611717565b6104a0565b6040516101b59190611753565b60405180910390f35b3480156101ca57600080fd5b506101e560048036038101906101e091906117cc565b6104bf565b005b3480156101f357600080fd5b5061020e600480360381019061020991906117cc565b6104e8565b005b34801561021c57600080fd5b5061022561056b565b005b34801561023357600080fd5b5061024e6004803603810190610249919061180c565b610888565b005b61025861091e565b005b34801561026657600080fd5b5061026f6109e7565b60405161027c91906116c6565b60405180910390f35b34801561029157600080fd5b5061029a6109ed565b6040516102a791906116c6565b60405180910390f35b3480156102bc57600080fd5b506102d760048036038101906102d291906117cc565b6109f3565b6040516102e49190611692565b60405180910390f35b3480156102f957600080fd5b50610302610a5d565b60405161030f91906116c6565b60405180910390f35b34801561032457600080fd5b5061032d610ad0565b60405161033a9190611753565b60405180910390f35b34801561034f57600080fd5b50610358610ad7565b6040516103659190611753565b60405180910390f35b34801561037a57600080fd5b50610383610afb565b60405161039091906116c6565b60405180910390f35b3480156103a557600080fd5b506103ae610c8a565b6040516103bb9190611753565b60405180910390f35b6103cc610cae565b005b3480156103da57600080fd5b506103f560048036038101906103f091906117cc565b610dfe565b005b34801561040357600080fd5b5061041e600480360381019061041991906117cc565b610e27565b005b60007f7965db0b000000000000000000000000000000000000000000000000000000007bffffffffffffffffffffffffffffffffffffffffffffffffffffffff1916827bffffffffffffffffffffffffffffffffffffffffffffffffffffffff19161480610493575061049282610e9e565b5b9050919050565b60015481565b6000806000838152602001908152602001600020600101549050919050565b6104c8826104a0565b6104d9816104d4610f08565b610f10565b6104e38383610fad565b505050565b6104f0610f08565b73ffffffffffffffffffffffffffffffffffffffff168173ffffffffffffffffffffffffffffffffffffffff161461055d576040517f08c379a0000000000000000000000000000000000000000000000000000000008152600401610554906118bc565b60405180910390fd5b610567828261108d565b5050565b6105957fb8ca5430e403d88aa14f3587e1aa5a2121b1acebf2201dde30800337ea6af075336109f3565b6105d4576040517f08c379a00000000000000000000000000000000000000000000000000000000081526004016105cb90611928565b60405180910390fd5b6000600460003373ffffffffffffffffffffffffffffffffffffffff1673ffffffffffffffffffffffffffffffffffffffff1681526020019081526020016000206000015411610659576040517f08c379a000000000000000000000000000000000000000000000000000000000815260040161065090611994565b60405180910390fd5b600354600460003373ffffffffffffffffffffffffffffffffffffffff1673ffffffffffffffffffffffffffffffffffffffff1681526020019081526020016000206001015410156107b4576000600460003373ffffffffffffffffffffffffffffffffffffffff1673ffffffffffffffffffffffffffffffffffffffff16815260200190815260200160002060000154905060006107036002548361116e90919063ffffffff16565b9050600061071c8260015461118b90919063ffffffff16565b8361072791906119e3565b90503373ffffffffffffffffffffffffffffffffffffffff166108fc829081150290604051600060405180830381858888f1935050505015801561076f573d6000803e3d6000fd5b508260025461077e9190611a39565b6002819055506107998260015461118b90919063ffffffff16565b6001546107a69190611a39565b60018190555050505061083e565b3373ffffffffffffffffffffffffffffffffffffffff166108fc600460003373ffffffffffffffffffffffffffffffffffffffff1673ffffffffffffffffffffffffffffffffffffffff168152602001908152602001600020600001549081150290604051600060405180830381858888f1935050505015801561083c573d6000803e3d6000fd5b505b6000600460003373ffffffffffffffffffffffffffffffffffffffff1673ffffffffffffffffffffffffffffffffffffffff16815260200190815260200160002060000181905550565b6108b27f765d2ed193fbd282ed21527947ee77384fa6e41387de264bcfdfcaffa63bfe4b336109f3565b6108f1576040517f08c379a00000000000000000000000000000000000000000000000000000000081526004016108e890611ab9565b60405180910390fd5b61091b7fb8ca5430e403d88aa14f3587e1aa5a2121b1acebf2201dde30800337ea6af07582610fad565b50565b6109487f765d2ed193fbd282ed21527947ee77384fa6e41387de264bcfdfcaffa63bfe4b336109f3565b610987576040517f08c379a000000000000000000000000000000000000000000000000000000000815260040161097e90611b25565b60405180910390fd5b600034116109ca576040517f08c379a00000000000000000000000000000000000000000000000000000000081526004016109c190611b91565b60405180910390fd5b346001546109d891906119e3565b60018190555042600381905550565b60035481565b60025481565b600080600084815260200190815260200160002060000160008373ffffffffffffffffffffffffffffffffffffffff1673ffffffffffffffffffffffffffffffffffffffff16815260200190815260200160002060009054906101000a900460ff16905092915050565b6000610a897f765d2ed193fbd282ed21527947ee77384fa6e41387de264bcfdfcaffa63bfe4b336109f3565b610ac8576040517f08c379a0000000000000000000000000000000000000000000000000000000008152600401610abf90611b25565b60405180910390fd5b600154905090565b6000801b81565b7f765d2ed193fbd282ed21527947ee77384fa6e41387de264bcfdfcaffa63bfe4b81565b6000610b277fb8ca5430e403d88aa14f3587e1aa5a2121b1acebf2201dde30800337ea6af075336109f3565b610b66576040517f08c379a0000000000000000000000000000000000000000000000000000000008152600401610b5d90611bfd565b60405180910390fd5b600354600460003373ffffffffffffffffffffffffffffffffffffffff1673ffffffffffffffffffffffffffffffffffffffff168152602001908152602001600020600101541015610c41576000600460003373ffffffffffffffffffffffffffffffffffffffff1673ffffffffffffffffffffffffffffffffffffffff1681526020019081526020016000206000015490506000610c106002548361116e90919063ffffffff16565b90506000610c298260015461118b90919063ffffffff16565b83610c3491906119e3565b9050809350505050610c87565b600460003373ffffffffffffffffffffffffffffffffffffffff1673ffffffffffffffffffffffffffffffffffffffff1681526020019081526020016000206000015490505b90565b7fb8ca5430e403d88aa14f3587e1aa5a2121b1acebf2201dde30800337ea6af07581565b610cd87fb8ca5430e403d88aa14f3587e1aa5a2121b1acebf2201dde30800337ea6af075336109f3565b610d17576040517f08c379a0000000000000000000000000000000000000000000000000000000008152600401610d0e90611c69565b60405180910390fd5b60003411610d5a576040517f08c379a0000000000000000000000000000000000000000000000000000000008152600401610d5190611b91565b60405180910390fd5b34600460003373ffffffffffffffffffffffffffffffffffffffff1673ffffffffffffffffffffffffffffffffffffffff1681526020019081526020016000206000018190555042600460003373ffffffffffffffffffffffffffffffffffffffff1673ffffffffffffffffffffffffffffffffffffffff1681526020019081526020016000206001018190555034600254610df691906119e3565b600281905550565b610e07826104a0565b610e1881610e13610f08565b610f10565b610e22838361108d565b505050565b610e517f765d2ed193fbd282ed21527947ee77384fa6e41387de264bcfdfcaffa63bfe4b336109f3565b610e90576040517f08c379a0000000000000000000000000000000000000000000000000000000008152600401610e8790611ab9565b60405180910390fd5b610e9a8282610fad565b5050565b60007f01ffc9a7000000000000000000000000000000000000000000000000000000007bffffffffffffffffffffffffffffffffffffffffffffffffffffffff1916827bffffffffffffffffffffffffffffffffffffffffffffffffffffffff1916149050919050565b600033905090565b610f1a82826109f3565b610fa957610f3f8173ffffffffffffffffffffffffffffffffffffffff16601461119f565b610f4d8360001c602061119f565b604051602001610f5e929190611d9b565b6040516020818303038152906040526040517f08c379a0000000000000000000000000000000000000000000000000000000008152600401610fa09190611e1f565b60405180910390fd5b5050565b610fb782826109f3565b61108957600160008084815260200190815260200160002060000160008373ffffffffffffffffffffffffffffffffffffffff1673ffffffffffffffffffffffffffffffffffffffff16815260200190815260200160002060006101000a81548160ff02191690831515021790555061102e610f08565b73ffffffffffffffffffffffffffffffffffffffff168173ffffffffffffffffffffffffffffffffffffffff16837f2f8788117e7eff1d82e926ec794901d17c78024a50270940304540a733656f0d60405160405180910390a45b5050565b61109782826109f3565b1561116a57600080600084815260200190815260200160002060000160008373ffffffffffffffffffffffffffffffffffffffff1673ffffffffffffffffffffffffffffffffffffffff16815260200190815260200160002060006101000a81548160ff02191690831515021790555061110f610f08565b73ffffffffffffffffffffffffffffffffffffffff168173ffffffffffffffffffffffffffffffffffffffff16837ff6391f5c32d9c69d2a47ea670b442974b53935d1edc7fd64eb21e047a839171b60405160405180910390a45b5050565b600061118383670de0b6b3a7640000846113db565b905092915050565b600061119783836114f0565b905092915050565b6060600060028360026111b29190611e41565b6111bc91906119e3565b67ffffffffffffffff8111156111d5576111d4611e9b565b5b6040519080825280601f01601f1916602001820160405280156112075781602001600182028036833780820191505090505b5090507f30000000000000000000000000000000000000000000000000000000000000008160008151811061123f5761123e611eca565b5b60200101907effffffffffffffffffffffffffffffffffffffffffffffffffffffffffffff1916908160001a9053507f7800000000000000000000000000000000000000000000000000000000000000816001815181106112a3576112a2611eca565b5b60200101907effffffffffffffffffffffffffffffffffffffffffffffffffffffffffffff1916908160001a905350600060018460026112e39190611e41565b6112ed91906119e3565b90505b600181111561138d577f3031323334353637383961626364656600000000000000000000000000000000600f86166010811061132f5761132e611eca565b5b1a60f81b82828151811061134657611345611eca565b5b60200101907effffffffffffffffffffffffffffffffffffffffffffffffffffffffffffff1916908160001a905350600485901c94508061138690611ef9565b90506112f0565b50600084146113d1576040517f08c379a00000000000000000000000000000000000000000000000000000000081526004016113c890611f6e565b60405180910390fd5b8091505092915050565b60008060008019858709858702925082811083820303915050600081036114165783828161140c5761140b611f8e565b5b04925050506114e9565b83811061145c5780846040517f773cc18c000000000000000000000000000000000000000000000000000000008152600401611453929190611fbd565b60405180910390fd5b60008486880990508281118203915080830392506000600186190186169050808604955080840493506001818260000304019050808302841793506000600287600302189050808702600203810290508087026002038102905080870260020381029050808702600203810290508087026002038102905080870260020381029050808502955050505050505b9392505050565b60008060008019848609848602925082811083820303915050670de0b6b3a7640000811061155557806040517fd31b340200000000000000000000000000000000000000000000000000000000815260040161154c91906116c6565b60405180910390fd5b600080670de0b6b3a764000086880991506706f05b59d3b1ffff82119050600083036115a15780670de0b6b3a7640000858161159457611593611f8e565b5b04019450505050506115e7565b807faccb18165bd6fe31ae1cf318dc5b51eee0e1ba569b88cd74c1773b91fac1066960016204000080600003040186851186030262040000858803041702019450505050505b92915050565b600080fd5b60007fffffffff0000000000000000000000000000000000000000000000000000000082169050919050565b611627816115f2565b811461163257600080fd5b50565b6000813590506116448161161e565b92915050565b6000602082840312156116605761165f6115ed565b5b600061166e84828501611635565b91505092915050565b60008115159050919050565b61168c81611677565b82525050565b60006020820190506116a76000830184611683565b92915050565b6000819050919050565b6116c0816116ad565b82525050565b60006020820190506116db60008301846116b7565b92915050565b6000819050919050565b6116f4816116e1565b81146116ff57600080fd5b50565b600081359050611711816116eb565b92915050565b60006020828403121561172d5761172c6115ed565b5b600061173b84828501611702565b91505092915050565b61174d816116e1565b82525050565b60006020820190506117686000830184611744565b92915050565b600073ffffffffffffffffffffffffffffffffffffffff82169050919050565b60006117998261176e565b9050919050565b6117a98161178e565b81146117b457600080fd5b50565b6000813590506117c6816117a0565b92915050565b600080604083850312156117e3576117e26115ed565b5b60006117f185828601611702565b9250506020611802858286016117b7565b9150509250929050565b600060208284031215611822576118216115ed565b5b6000611830848285016117b7565b91505092915050565b600082825260208201905092915050565b7f416363657373436f6e74726f6c3a2063616e206f6e6c792072656e6f756e636560008201527f20726f6c657320666f722073656c660000000000000000000000000000000000602082015250565b60006118a6602f83611839565b91506118b18261184a565b604082019050919050565b600060208201905081810360008301526118d581611899565b9050919050565b7f4f6e6c7920757365722063616e20776974686472776100000000000000000000600082015250565b6000611912601683611839565b915061191d826118dc565b602082019050919050565b6000602082019050818103600083015261194181611905565b9050919050565b7f546865207573657220646f6e7420686176652062616c616e6365000000000000600082015250565b600061197e601a83611839565b915061198982611948565b602082019050919050565b600060208201905081810360008301526119ad81611971565b9050919050565b7f4e487b7100000000000000000000000000000000000000000000000000000000600052601160045260246000fd5b60006119ee826116ad565b91506119f9836116ad565b9250827fffffffffffffffffffffffffffffffffffffffffffffffffffffffffffffffff03821115611a2e57611a2d6119b4565b5b828201905092915050565b6000611a44826116ad565b9150611a4f836116ad565b925082821015611a6257611a616119b4565b5b828203905092915050565b7f4f6e6c79207465616d2063616e20617369676e20726f6c657300000000000000600082015250565b6000611aa3601983611839565b9150611aae82611a6d565b602082019050919050565b60006020820190508181036000830152611ad281611a96565b9050919050565b7f4f6e6c79207465616d2063616e206465706f7369742072657761726400000000600082015250565b6000611b0f601c83611839565b9150611b1a82611ad9565b602082019050919050565b60006020820190508181036000830152611b3e81611b02565b9050919050565b7f416d6f756e742073686f756c6420626520686967686572207468616e20300000600082015250565b6000611b7b601e83611839565b9150611b8682611b45565b602082019050919050565b60006020820190508181036000830152611baa81611b6e565b9050919050565b7f4f6e6c7920757365722063616e20686176652062616c616e6365000000000000600082015250565b6000611be7601a83611839565b9150611bf282611bb1565b602082019050919050565b60006020820190508181036000830152611c1681611bda565b9050919050565b7f4f6e6c7920757365722063616e206465706f7369740000000000000000000000600082015250565b6000611c53601583611839565b9150611c5e82611c1d565b602082019050919050565b60006020820190508181036000830152611c8281611c46565b9050919050565b600081905092915050565b7f416363657373436f6e74726f6c3a206163636f756e7420000000000000000000600082015250565b6000611cca601783611c89565b9150611cd582611c94565b601782019050919050565b600081519050919050565b60005b83811015611d09578082015181840152602081019050611cee565b83811115611d18576000848401525b50505050565b6000611d2982611ce0565b611d338185611c89565b9350611d43818560208601611ceb565b80840191505092915050565b7f206973206d697373696e6720726f6c6520000000000000000000000000000000600082015250565b6000611d85601183611c89565b9150611d9082611d4f565b601182019050919050565b6000611da682611cbd565b9150611db28285611d1e565b9150611dbd82611d78565b9150611dc98284611d1e565b91508190509392505050565b6000601f19601f8301169050919050565b6000611df182611ce0565b611dfb8185611839565b9350611e0b818560208601611ceb565b611e1481611dd5565b840191505092915050565b60006020820190508181036000830152611e398184611de6565b905092915050565b6000611e4c826116ad565b9150611e57836116ad565b9250817fffffffffffffffffffffffffffffffffffffffffffffffffffffffffffffffff0483118215151615611e9057611e8f6119b4565b5b828202905092915050565b7f4e487b7100000000000000000000000000000000000000000000000000000000600052604160045260246000fd5b7f4e487b7100000000000000000000000000000000000000000000000000000000600052603260045260246000fd5b6000611f04826116ad565b915060008203611f1757611f166119b4565b5b600182039050919050565b7f537472696e67733a20686578206c656e67746820696e73756666696369656e74600082015250565b6000611f58602083611839565b9150611f6382611f22565b602082019050919050565b60006020820190508181036000830152611f8781611f4b565b9050919050565b7f4e487b7100000000000000000000000000000000000000000000000000000000600052601260045260246000fd5b6000604082019050611fd260008301856116b7565b611fdf60208301846116b7565b939250505056fea264697066735822122050d02412373fb89d6850f5e497c574d87eef86b26d50569fb0459fb052604a0664736f6c634300080d0033",
  "immutableReferences": {},
  "source": "// SPDX-License-Identifier: MIT\npragma solidity >=0.8.0 <0.9.0;\n\nimport \"@openzeppelin/contracts/access/AccessControl.sol\";\nimport \"prb-math/contracts/PRBMathSD59x18.sol\";\nimport \"prb-math/contracts/PRBMathUD60x18.sol\";\n\ncontract ETHPool is AccessControl {\n    using PRBMathUD60x18 for uint256;\n    using PRBMathSD59x18 for int256;\n\n    struct userDeposit {\n        uint256 deposit;\n        uint256 dateDeposit;\n    }\n\n    bytes32 public constant ROLE_TEAM = keccak256(\"ROLE_TEAM\");\n    bytes32 public constant ROLE_USER = keccak256(\"ROLE_USER\");\n    uint256 public reward_pool = 0;\n    uint256 public total_pool = 0;\n    uint256 public lastRewardDate;\n\n    mapping(address => userDeposit) users_pool;\n\n    constructor() {\n        lastRewardDate = block.timestamp;\n        _grantRole(ROLE_TEAM, msg.sender);\n    }\n\n    function deposit() public payable {\n        require(hasRole(ROLE_USER, msg.sender), \"Only user can deposit\");\n        require(msg.value > 0, \"Amount should be higher than 0\");\n\n        users_pool[msg.sender].deposit = msg.value;\n        users_pool[msg.sender].dateDeposit = block.timestamp;\n\n        total_pool = total_pool + msg.value;\n    }\n\n    function withdraw() public {\n        require(hasRole(ROLE_USER, msg.sender), \"Only user can withdrwa\");\n        require(\n            users_pool[msg.sender].deposit > 0,\n            \"The user dont have balance\"\n        );\n\n        if (users_pool[msg.sender].dateDeposit < lastRewardDate) {\n            uint256 user_pool_deposit = users_pool[msg.sender].deposit;\n            uint256 share = user_pool_deposit.div(total_pool);\n            uint256 total_withdraw = user_pool_deposit + reward_pool.mul(share);\n            payable(msg.sender).transfer(total_withdraw);\n            total_pool = total_pool - user_pool_deposit;\n            reward_pool = reward_pool - reward_pool.mul(share);\n        } else {\n            payable(msg.sender).transfer(users_pool[msg.sender].deposit);\n        }\n\n        users_pool[msg.sender].deposit = 0;\n    }\n\n    function balance() public view returns (uint256) {\n        require(hasRole(ROLE_USER, msg.sender), \"Only user can have balance\");\n        if (users_pool[msg.sender].dateDeposit < lastRewardDate) {\n            uint256 user_pool_deposit = users_pool[msg.sender].deposit;\n            uint256 share = user_pool_deposit.div(total_pool);\n            uint256 total_withdraw = user_pool_deposit + reward_pool.mul(share);\n            return total_withdraw;\n        } else {\n            return users_pool[msg.sender].deposit;\n        }\n    }\n\n    function depositReward() public payable {\n        require(hasRole(ROLE_TEAM, msg.sender), \"Only team can deposit reward\");\n        require(msg.value > 0, \"Amount should be higher than 0\");\n\n        reward_pool = reward_pool + msg.value;\n        lastRewardDate = block.timestamp;\n    }\n\n    function balanceReward() public view returns (uint256) {\n        require(hasRole(ROLE_TEAM, msg.sender), \"Only team can deposit reward\");\n        return reward_pool;\n    }\n\n    function addRole(bytes32 role, address account) public {\n        require(hasRole(ROLE_TEAM, msg.sender), \"Only team can asign roles\");\n        _grantRole(role, account);\n    }\n\n    function addUserRole(address account) public {\n        require(hasRole(ROLE_TEAM, msg.sender), \"Only team can asign roles\");\n        _grantRole(ROLE_USER, account);\n    }\n}\n",
  "sourcePath": "/Users/alanhurtarte/project/challenge/contracts/ETHPool.sol",
  "compiler": {
    "name": "solc",
    "version": "0.8.13+commit.abaa5c0e.Emscripten.clang"
  },
  "schemaVersion": "3.4.6",
  "updatedAt": "2022-03-18T05:31:14.237Z",
  "networkType": "ethereum",
  "devdoc": {
    "kind": "dev",
    "methods": {
      "getRoleAdmin(bytes32)": {
        "details": "Returns the admin role that controls `role`. See {grantRole} and {revokeRole}. To change a role's admin, use {_setRoleAdmin}."
      },
      "grantRole(bytes32,address)": {
        "details": "Grants `role` to `account`. If `account` had not been already granted `role`, emits a {RoleGranted} event. Requirements: - the caller must have ``role``'s admin role."
      },
      "hasRole(bytes32,address)": {
        "details": "Returns `true` if `account` has been granted `role`."
      },
      "renounceRole(bytes32,address)": {
        "details": "Revokes `role` from the calling account. Roles are often managed via {grantRole} and {revokeRole}: this function's purpose is to provide a mechanism for accounts to lose their privileges if they are compromised (such as when a trusted device is misplaced). If the calling account had been revoked `role`, emits a {RoleRevoked} event. Requirements: - the caller must be `account`."
      },
      "revokeRole(bytes32,address)": {
        "details": "Revokes `role` from `account`. If `account` had been granted `role`, emits a {RoleRevoked} event. Requirements: - the caller must have ``role``'s admin role."
      },
      "supportsInterface(bytes4)": {
        "details": "See {IERC165-supportsInterface}."
      }
    },
    "version": 1
  },
  "userdoc": {
    "errors": {
      "PRBMath__MulDivFixedPointOverflow(uint256)": [
        {
          "notice": "Emitted when the result overflows uint256."
        }
      ],
      "PRBMath__MulDivOverflow(uint256,uint256)": [
        {
          "notice": "Emitted when the result overflows uint256."
        }
      ]
    },
    "kind": "user",
    "methods": {},
    "version": 1
  }
}