{
  "contractName": "ETHPool",
  "abi": [
    {
      "inputs": [],
      "stateMutability": "nonpayable",
      "type": "constructor"
    },
    {
      "inputs": [
        {
          "internalType": "uint256",
          "name": "prod1",
          "type": "uint256"
        }
      ],
      "name": "PRBMath__MulDivFixedPointOverflow",
      "type": "error"
    },
    {
      "inputs": [
        {
          "internalType": "uint256",
          "name": "prod1",
          "type": "uint256"
        },
        {
          "internalType": "uint256",
          "name": "denominator",
          "type": "uint256"
        }
      ],
      "name": "PRBMath__MulDivOverflow",
      "type": "error"
    },
    {
      "anonymous": false,
      "inputs": [
        {
          "indexed": true,
          "internalType": "bytes32",
          "name": "role",
          "type": "bytes32"
        },
        {
          "indexed": true,
          "internalType": "bytes32",
          "name": "previousAdminRole",
          "type": "bytes32"
        },
        {
          "indexed": true,
          "internalType": "bytes32",
          "name": "newAdminRole",
          "type": "bytes32"
        }
      ],
      "name": "RoleAdminChanged",
      "type": "event"
    },
    {
      "anonymous": false,
      "inputs": [
        {
          "indexed": true,
          "internalType": "bytes32",
          "name": "role",
          "type": "bytes32"
        },
        {
          "indexed": true,
          "internalType": "address",
          "name": "account",
          "type": "address"
        },
        {
          "indexed": true,
          "internalType": "address",
          "name": "sender",
          "type": "address"
        }
      ],
      "name": "RoleGranted",
      "type": "event"
    },
    {
      "anonymous": false,
      "inputs": [
        {
          "indexed": true,
          "internalType": "bytes32",
          "name": "role",
          "type": "bytes32"
        },
        {
          "indexed": true,
          "internalType": "address",
          "name": "account",
          "type": "address"
        },
        {
          "indexed": true,
          "internalType": "address",
          "name": "sender",
          "type": "address"
        }
      ],
      "name": "RoleRevoked",
      "type": "event"
    },
    {
      "inputs": [],
      "name": "DEFAULT_ADMIN_ROLE",
      "outputs": [
        {
          "internalType": "bytes32",
          "name": "",
          "type": "bytes32"
        }
      ],
      "stateMutability": "view",
      "type": "function",
      "constant": true
    },
    {
      "inputs": [],
      "name": "ROLE_TEAM",
      "outputs": [
        {
          "internalType": "bytes32",
          "name": "",
          "type": "bytes32"
        }
      ],
      "stateMutability": "view",
      "type": "function",
      "constant": true
    },
    {
      "inputs": [],
      "name": "ROLE_USER",
      "outputs": [
        {
          "internalType": "bytes32",
          "name": "",
          "type": "bytes32"
        }
      ],
      "stateMutability": "view",
      "type": "function",
      "constant": true
    },
    {
      "inputs": [
        {
          "internalType": "bytes32",
          "name": "role",
          "type": "bytes32"
        }
      ],
      "name": "getRoleAdmin",
      "outputs": [
        {
          "internalType": "bytes32",
          "name": "",
          "type": "bytes32"
        }
      ],
      "stateMutability": "view",
      "type": "function",
      "constant": true
    },
    {
      "inputs": [
        {
          "internalType": "bytes32",
          "name": "role",
          "type": "bytes32"
        },
        {
          "internalType": "address",
          "name": "account",
          "type": "address"
        }
      ],
      "name": "grantRole",
      "outputs": [],
      "stateMutability": "nonpayable",
      "type": "function"
    },
    {
      "inputs": [
        {
          "internalType": "bytes32",
          "name": "role",
          "type": "bytes32"
        },
        {
          "internalType": "address",
          "name": "account",
          "type": "address"
        }
      ],
      "name": "hasRole",
      "outputs": [
        {
          "internalType": "bool",
          "name": "",
          "type": "bool"
        }
      ],
      "stateMutability": "view",
      "type": "function",
      "constant": true
    },
    {
      "inputs": [
        {
          "internalType": "bytes32",
          "name": "role",
          "type": "bytes32"
        },
        {
          "internalType": "address",
          "name": "account",
          "type": "address"
        }
      ],
      "name": "renounceRole",
      "outputs": [],
      "stateMutability": "nonpayable",
      "type": "function"
    },
    {
      "inputs": [
        {
          "internalType": "bytes32",
          "name": "role",
          "type": "bytes32"
        },
        {
          "internalType": "address",
          "name": "account",
          "type": "address"
        }
      ],
      "name": "revokeRole",
      "outputs": [],
      "stateMutability": "nonpayable",
      "type": "function"
    },
    {
      "inputs": [
        {
          "internalType": "bytes4",
          "name": "interfaceId",
          "type": "bytes4"
        }
      ],
      "name": "supportsInterface",
      "outputs": [
        {
          "internalType": "bool",
          "name": "",
          "type": "bool"
        }
      ],
      "stateMutability": "view",
      "type": "function",
      "constant": true
    },
    {
      "inputs": [],
      "name": "deposit",
      "outputs": [],
      "stateMutability": "payable",
      "type": "function",
      "payable": true
    },
    {
      "inputs": [],
      "name": "withdraw",
      "outputs": [],
      "stateMutability": "nonpayable",
      "type": "function"
    },
    {
      "inputs": [],
      "name": "balance",
      "outputs": [
        {
          "internalType": "uint256",
          "name": "",
          "type": "uint256"
        }
      ],
      "stateMutability": "view",
      "type": "function",
      "constant": true
    },
    {
      "inputs": [],
      "name": "depositReward",
      "outputs": [],
      "stateMutability": "payable",
      "type": "function",
      "payable": true
    },
    {
      "inputs": [],
      "name": "balanceReward",
      "outputs": [
        {
          "internalType": "uint256",
          "name": "",
          "type": "uint256"
        }
      ],
      "stateMutability": "view",
      "type": "function",
      "constant": true
    },
    {
      "inputs": [
        {
          "internalType": "bytes32",
          "name": "role",
          "type": "bytes32"
        },
        {
          "internalType": "address",
          "name": "account",
          "type": "address"
        }
      ],
      "name": "addRole",
      "outputs": [],
      "stateMutability": "nonpayable",
      "type": "function"
    },
    {
      "inputs": [
        {
          "internalType": "address",
          "name": "account",
          "type": "address"
        }
      ],
      "name": "addUserRole",
      "outputs": [],
      "stateMutability": "nonpayable",
      "type": "function"
    }
  ],
  "bytecode": "0x60806040526000600155600060025560006003553480156200002057600080fd5b50620000537f765d2ed193fbd282ed21527947ee77384fa6e41387de264bcfdfcaffa63bfe4b336200005960201b60201c565b620001bc565b6200006b82826200014a60201b60201c565b6200014657600160008084815260200190815260200160002060000160008373ffffffffffffffffffffffffffffffffffffffff1673ffffffffffffffffffffffffffffffffffffffff16815260200190815260200160002060006101000a81548160ff021916908315150217905550620000eb620001b460201b60201c565b73ffffffffffffffffffffffffffffffffffffffff168173ffffffffffffffffffffffffffffffffffffffff16837f2f8788117e7eff1d82e926ec794901d17c78024a50270940304540a733656f0d60405160405180910390a45b5050565b600080600084815260200190815260200160002060000160008373ffffffffffffffffffffffffffffffffffffffff1673ffffffffffffffffffffffffffffffffffffffff16815260200190815260200160002060009054906101000a900460ff16905092915050565b600033905090565b61204280620001cc6000396000f3fe6080604052600436106100f35760003560e01c80639fb69b431161008a578063b941719e11610059578063b941719e146102f7578063d0e30db014610322578063d547741f1461032c578063e959b38a14610355576100f3565b80639fb69b431461024b578063a217fddf14610276578063ab646c26146102a1578063b69ef8a8146102cc576100f3565b80633ccfd60b116100c65780633ccfd60b146101c457806356cf15ad146101db5780635ec2dc8d1461020457806391d148541461020e576100f3565b806301ffc9a7146100f8578063248a9ca3146101355780632f2ff15d1461017257806336568abe1461019b575b600080fd5b34801561010457600080fd5b5061011f600480360381019061011a9190611602565b61037e565b60405161012c919061164a565b60405180910390f35b34801561014157600080fd5b5061015c6004803603810190610157919061169b565b6103f8565b60405161016991906116d7565b60405180910390f35b34801561017e57600080fd5b5061019960048036038101906101949190611750565b610417565b005b3480156101a757600080fd5b506101c260048036038101906101bd9190611750565b610440565b005b3480156101d057600080fd5b506101d96104c3565b005b3480156101e757600080fd5b5061020260048036038101906101fd9190611790565b6106e3565b005b61020c610779565b005b34801561021a57600080fd5b5061023560048036038101906102309190611750565b6109c4565b604051610242919061164a565b60405180910390f35b34801561025757600080fd5b50610260610a2e565b60405161026d91906117d6565b60405180910390f35b34801561028257600080fd5b5061028b610aa1565b60405161029891906116d7565b60405180910390f35b3480156102ad57600080fd5b506102b6610aa8565b6040516102c391906116d7565b60405180910390f35b3480156102d857600080fd5b506102e1610acc565b6040516102ee91906117d6565b60405180910390f35b34801561030357600080fd5b5061030c610b13565b60405161031991906116d7565b60405180910390f35b61032a610b37565b005b34801561033857600080fd5b50610353600480360381019061034e9190611750565b610db6565b005b34801561036157600080fd5b5061037c60048036038101906103779190611750565b610ddf565b005b60007f7965db0b000000000000000000000000000000000000000000000000000000007bffffffffffffffffffffffffffffffffffffffffffffffffffffffff1916827bffffffffffffffffffffffffffffffffffffffffffffffffffffffff191614806103f157506103f082610e56565b5b9050919050565b6000806000838152602001908152602001600020600101549050919050565b610420826103f8565b6104318161042c610ec0565b610ec8565b61043b8383610f65565b505050565b610448610ec0565b73ffffffffffffffffffffffffffffffffffffffff168173ffffffffffffffffffffffffffffffffffffffff16146104b5576040517f08c379a00000000000000000000000000000000000000000000000000000000081526004016104ac90611874565b60405180910390fd5b6104bf8282611045565b5050565b6104ed7fb8ca5430e403d88aa14f3587e1aa5a2121b1acebf2201dde30800337ea6af075336109c4565b61052c576040517f08c379a0000000000000000000000000000000000000000000000000000000008152600401610523906118e0565b60405180910390fd5b6000600460003373ffffffffffffffffffffffffffffffffffffffff1673ffffffffffffffffffffffffffffffffffffffff16815260200190815260200160002054116105ae576040517f08c379a00000000000000000000000000000000000000000000000000000000081526004016105a59061194c565b60405180910390fd5b60016003546105bd919061199b565b600381905550600460003373ffffffffffffffffffffffffffffffffffffffff1673ffffffffffffffffffffffffffffffffffffffff16815260200190815260200160002054600254610610919061199b565b6002819055503373ffffffffffffffffffffffffffffffffffffffff166108fc600460003373ffffffffffffffffffffffffffffffffffffffff1673ffffffffffffffffffffffffffffffffffffffff168152602001908152602001600020549081150290604051600060405180830381858888f1935050505015801561069b573d6000803e3d6000fd5b506000600460003373ffffffffffffffffffffffffffffffffffffffff1673ffffffffffffffffffffffffffffffffffffffff16815260200190815260200160002081905550565b61070d7f765d2ed193fbd282ed21527947ee77384fa6e41387de264bcfdfcaffa63bfe4b336109c4565b61074c576040517f08c379a000000000000000000000000000000000000000000000000000000000815260040161074390611a1b565b60405180910390fd5b6107767fb8ca5430e403d88aa14f3587e1aa5a2121b1acebf2201dde30800337ea6af07582610f65565b50565b6107a37f765d2ed193fbd282ed21527947ee77384fa6e41387de264bcfdfcaffa63bfe4b336109c4565b6107e2576040517f08c379a00000000000000000000000000000000000000000000000000000000081526004016107d990611a87565b60405180910390fd5b346001546107f09190611aa7565b60018190555060006003541161083b576040517f08c379a000000000000000000000000000000000000000000000000000000000815260040161083290611b6f565b60405180910390fd5b6000805b6003548110156109b1576000600460006005600085815260200190815260200160002060009054906101000a900473ffffffffffffffffffffffffffffffffffffffff1673ffffffffffffffffffffffffffffffffffffffff1673ffffffffffffffffffffffffffffffffffffffff16815260200190815260200160002054905060006108d76002548361112690919063ffffffff16565b90506108ee8160015461114390919063ffffffff16565b826108f99190611aa7565b600460006005600087815260200190815260200160002060009054906101000a900473ffffffffffffffffffffffffffffffffffffffff1673ffffffffffffffffffffffffffffffffffffffff1673ffffffffffffffffffffffffffffffffffffffff168152602001908152602001600020819055506109848160015461114390919063ffffffff16565b82856109909190611aa7565b61099a9190611aa7565b9350505080806109a990611b8f565b91505061083f565b5080600281905550600060018190555050565b600080600084815260200190815260200160002060000160008373ffffffffffffffffffffffffffffffffffffffff1673ffffffffffffffffffffffffffffffffffffffff16815260200190815260200160002060009054906101000a900460ff16905092915050565b6000610a5a7f765d2ed193fbd282ed21527947ee77384fa6e41387de264bcfdfcaffa63bfe4b336109c4565b610a99576040517f08c379a0000000000000000000000000000000000000000000000000000000008152600401610a9090611a87565b60405180910390fd5b600154905090565b6000801b81565b7f765d2ed193fbd282ed21527947ee77384fa6e41387de264bcfdfcaffa63bfe4b81565b6000600460003373ffffffffffffffffffffffffffffffffffffffff1673ffffffffffffffffffffffffffffffffffffffff16815260200190815260200160002054905090565b7fb8ca5430e403d88aa14f3587e1aa5a2121b1acebf2201dde30800337ea6af07581565b610b617fb8ca5430e403d88aa14f3587e1aa5a2121b1acebf2201dde30800337ea6af075336109c4565b610ba0576040517f08c379a0000000000000000000000000000000000000000000000000000000008152600401610b9790611c23565b60405180910390fd5b60003411610be3576040517f08c379a0000000000000000000000000000000000000000000000000000000008152600401610bda90611c8f565b60405180910390fd5b6000600460003373ffffffffffffffffffffffffffffffffffffffff1673ffffffffffffffffffffffffffffffffffffffff1681526020019081526020016000205403610d11573360056000600354815260200190815260200160002060006101000a81548173ffffffffffffffffffffffffffffffffffffffff021916908373ffffffffffffffffffffffffffffffffffffffff160217905550346004600060056000600354815260200190815260200160002060009054906101000a900473ffffffffffffffffffffffffffffffffffffffff1673ffffffffffffffffffffffffffffffffffffffff1673ffffffffffffffffffffffffffffffffffffffff168152602001908152602001600020819055506001600354610d069190611aa7565b600381905550610da0565b34600460003373ffffffffffffffffffffffffffffffffffffffff1673ffffffffffffffffffffffffffffffffffffffff16815260200190815260200160002054610d5c9190611aa7565b600460003373ffffffffffffffffffffffffffffffffffffffff1673ffffffffffffffffffffffffffffffffffffffff168152602001908152602001600020819055505b34600254610dae9190611aa7565b600281905550565b610dbf826103f8565b610dd081610dcb610ec0565b610ec8565b610dda8383611045565b505050565b610e097f765d2ed193fbd282ed21527947ee77384fa6e41387de264bcfdfcaffa63bfe4b336109c4565b610e48576040517f08c379a0000000000000000000000000000000000000000000000000000000008152600401610e3f90611a1b565b60405180910390fd5b610e528282610f65565b5050565b60007f01ffc9a7000000000000000000000000000000000000000000000000000000007bffffffffffffffffffffffffffffffffffffffffffffffffffffffff1916827bffffffffffffffffffffffffffffffffffffffffffffffffffffffff1916149050919050565b600033905090565b610ed282826109c4565b610f6157610ef78173ffffffffffffffffffffffffffffffffffffffff166014611157565b610f058360001c6020611157565b604051602001610f16929190611dc1565b6040516020818303038152906040526040517f08c379a0000000000000000000000000000000000000000000000000000000008152600401610f589190611e45565b60405180910390fd5b5050565b610f6f82826109c4565b61104157600160008084815260200190815260200160002060000160008373ffffffffffffffffffffffffffffffffffffffff1673ffffffffffffffffffffffffffffffffffffffff16815260200190815260200160002060006101000a81548160ff021916908315150217905550610fe6610ec0565b73ffffffffffffffffffffffffffffffffffffffff168173ffffffffffffffffffffffffffffffffffffffff16837f2f8788117e7eff1d82e926ec794901d17c78024a50270940304540a733656f0d60405160405180910390a45b5050565b61104f82826109c4565b1561112257600080600084815260200190815260200160002060000160008373ffffffffffffffffffffffffffffffffffffffff1673ffffffffffffffffffffffffffffffffffffffff16815260200190815260200160002060006101000a81548160ff0219169083151502179055506110c7610ec0565b73ffffffffffffffffffffffffffffffffffffffff168173ffffffffffffffffffffffffffffffffffffffff16837ff6391f5c32d9c69d2a47ea670b442974b53935d1edc7fd64eb21e047a839171b60405160405180910390a45b5050565b600061113b83670de0b6b3a764000084611393565b905092915050565b600061114f83836114a8565b905092915050565b60606000600283600261116a9190611e67565b6111749190611aa7565b67ffffffffffffffff81111561118d5761118c611ec1565b5b6040519080825280601f01601f1916602001820160405280156111bf5781602001600182028036833780820191505090505b5090507f3000000000000000000000000000000000000000000000000000000000000000816000815181106111f7576111f6611ef0565b5b60200101907effffffffffffffffffffffffffffffffffffffffffffffffffffffffffffff1916908160001a9053507f78000000000000000000000000000000000000000000000000000000000000008160018151811061125b5761125a611ef0565b5b60200101907effffffffffffffffffffffffffffffffffffffffffffffffffffffffffffff1916908160001a9053506000600184600261129b9190611e67565b6112a59190611aa7565b90505b6001811115611345577f3031323334353637383961626364656600000000000000000000000000000000600f8616601081106112e7576112e6611ef0565b5b1a60f81b8282815181106112fe576112fd611ef0565b5b60200101907effffffffffffffffffffffffffffffffffffffffffffffffffffffffffffff1916908160001a905350600485901c94508061133e90611f1f565b90506112a8565b5060008414611389576040517f08c379a000000000000000000000000000000000000000000000000000000000815260040161138090611f94565b60405180910390fd5b8091505092915050565b60008060008019858709858702925082811083820303915050600081036113ce578382816113c4576113c3611fb4565b5b04925050506114a1565b8381106114145780846040517f773cc18c00000000000000000000000000000000000000000000000000000000815260040161140b929190611fe3565b60405180910390fd5b60008486880990508281118203915080830392506000600186190186169050808604955080840493506001818260000304019050808302841793506000600287600302189050808702600203810290508087026002038102905080870260020381029050808702600203810290508087026002038102905080870260020381029050808502955050505050505b9392505050565b60008060008019848609848602925082811083820303915050670de0b6b3a7640000811061150d57806040517fd31b340200000000000000000000000000000000000000000000000000000000815260040161150491906117d6565b60405180910390fd5b600080670de0b6b3a764000086880991506706f05b59d3b1ffff82119050600083036115595780670de0b6b3a7640000858161154c5761154b611fb4565b5b040194505050505061159f565b807faccb18165bd6fe31ae1cf318dc5b51eee0e1ba569b88cd74c1773b91fac1066960016204000080600003040186851186030262040000858803041702019450505050505b92915050565b600080fd5b60007fffffffff0000000000000000000000000000000000000000000000000000000082169050919050565b6115df816115aa565b81146115ea57600080fd5b50565b6000813590506115fc816115d6565b92915050565b600060208284031215611618576116176115a5565b5b6000611626848285016115ed565b91505092915050565b60008115159050919050565b6116448161162f565b82525050565b600060208201905061165f600083018461163b565b92915050565b6000819050919050565b61167881611665565b811461168357600080fd5b50565b6000813590506116958161166f565b92915050565b6000602082840312156116b1576116b06115a5565b5b60006116bf84828501611686565b91505092915050565b6116d181611665565b82525050565b60006020820190506116ec60008301846116c8565b92915050565b600073ffffffffffffffffffffffffffffffffffffffff82169050919050565b600061171d826116f2565b9050919050565b61172d81611712565b811461173857600080fd5b50565b60008135905061174a81611724565b92915050565b60008060408385031215611767576117666115a5565b5b600061177585828601611686565b92505060206117868582860161173b565b9150509250929050565b6000602082840312156117a6576117a56115a5565b5b60006117b48482850161173b565b91505092915050565b6000819050919050565b6117d0816117bd565b82525050565b60006020820190506117eb60008301846117c7565b92915050565b600082825260208201905092915050565b7f416363657373436f6e74726f6c3a2063616e206f6e6c792072656e6f756e636560008201527f20726f6c657320666f722073656c660000000000000000000000000000000000602082015250565b600061185e602f836117f1565b915061186982611802565b604082019050919050565b6000602082019050818103600083015261188d81611851565b9050919050565b7f4f6e6c7920757365722063616e20776974686472776100000000000000000000600082015250565b60006118ca6016836117f1565b91506118d582611894565b602082019050919050565b600060208201905081810360008301526118f9816118bd565b9050919050565b7f546865207573657220646f6e7420686176652062616c616e6365000000000000600082015250565b6000611936601a836117f1565b915061194182611900565b602082019050919050565b6000602082019050818103600083015261196581611929565b9050919050565b7f4e487b7100000000000000000000000000000000000000000000000000000000600052601160045260246000fd5b60006119a6826117bd565b91506119b1836117bd565b9250828210156119c4576119c361196c565b5b828203905092915050565b7f4f6e6c79207465616d2063616e20617369676e20726f6c657300000000000000600082015250565b6000611a056019836117f1565b9150611a10826119cf565b602082019050919050565b60006020820190508181036000830152611a34816119f8565b9050919050565b7f4f6e6c79207465616d2063616e206465706f7369742072657761726400000000600082015250565b6000611a71601c836117f1565b9150611a7c82611a3b565b602082019050919050565b60006020820190508181036000830152611aa081611a64565b9050919050565b6000611ab2826117bd565b9150611abd836117bd565b9250827fffffffffffffffffffffffffffffffffffffffffffffffffffffffffffffffff03821115611af257611af161196c565b5b828201905092915050565b7f43616e6e6f742073706c69742072657761726420776974686f7574207573657260008201527f7300000000000000000000000000000000000000000000000000000000000000602082015250565b6000611b596021836117f1565b9150611b6482611afd565b604082019050919050565b60006020820190508181036000830152611b8881611b4c565b9050919050565b6000611b9a826117bd565b91507fffffffffffffffffffffffffffffffffffffffffffffffffffffffffffffffff8203611bcc57611bcb61196c565b5b600182019050919050565b7f4f6e6c7920757365722063616e206465706f7369740000000000000000000000600082015250565b6000611c0d6015836117f1565b9150611c1882611bd7565b602082019050919050565b60006020820190508181036000830152611c3c81611c00565b9050919050565b7f416d6f756e742073686f756c6420626520686967686572207468616e20300000600082015250565b6000611c79601e836117f1565b9150611c8482611c43565b602082019050919050565b60006020820190508181036000830152611ca881611c6c565b9050919050565b600081905092915050565b7f416363657373436f6e74726f6c3a206163636f756e7420000000000000000000600082015250565b6000611cf0601783611caf565b9150611cfb82611cba565b601782019050919050565b600081519050919050565b60005b83811015611d2f578082015181840152602081019050611d14565b83811115611d3e576000848401525b50505050565b6000611d4f82611d06565b611d598185611caf565b9350611d69818560208601611d11565b80840191505092915050565b7f206973206d697373696e6720726f6c6520000000000000000000000000000000600082015250565b6000611dab601183611caf565b9150611db682611d75565b601182019050919050565b6000611dcc82611ce3565b9150611dd88285611d44565b9150611de382611d9e565b9150611def8284611d44565b91508190509392505050565b6000601f19601f8301169050919050565b6000611e1782611d06565b611e2181856117f1565b9350611e31818560208601611d11565b611e3a81611dfb565b840191505092915050565b60006020820190508181036000830152611e5f8184611e0c565b905092915050565b6000611e72826117bd565b9150611e7d836117bd565b9250817fffffffffffffffffffffffffffffffffffffffffffffffffffffffffffffffff0483118215151615611eb657611eb561196c565b5b828202905092915050565b7f4e487b7100000000000000000000000000000000000000000000000000000000600052604160045260246000fd5b7f4e487b7100000000000000000000000000000000000000000000000000000000600052603260045260246000fd5b6000611f2a826117bd565b915060008203611f3d57611f3c61196c565b5b600182039050919050565b7f537472696e67733a20686578206c656e67746820696e73756666696369656e74600082015250565b6000611f7e6020836117f1565b9150611f8982611f48565b602082019050919050565b60006020820190508181036000830152611fad81611f71565b9050919050565b7f4e487b7100000000000000000000000000000000000000000000000000000000600052601260045260246000fd5b6000604082019050611ff860008301856117c7565b61200560208301846117c7565b939250505056fea2646970667358221220161420a2c78965e09c1d4d408a3ddade4c9b1cf19768bcdd2b1e677cd8bd960d64736f6c634300080d0033",
  "immutableReferences": {},
  "source": "// SPDX-License-Identifier: MIT\npragma solidity >=0.8.0 <0.9.0;\n\nimport \"@openzeppelin/contracts/access/AccessControl.sol\";\nimport \"prb-math/contracts/PRBMathSD59x18.sol\";\nimport \"prb-math/contracts/PRBMathUD60x18.sol\";\n\ncontract ETHPool is AccessControl {\n    using PRBMathUD60x18 for uint256;\n    using PRBMathSD59x18 for int256;\n\n    bytes32 public constant ROLE_TEAM = keccak256(\"ROLE_TEAM\");\n    bytes32 public constant ROLE_USER = keccak256(\"ROLE_USER\");\n    uint256 reward_pool = 0;\n    uint256 total_pool = 0;\n    uint256 total_users = 0;\n    mapping(address => uint256) users_pool;\n    mapping(uint256 => address) private holders;\n    mapping(address => uint256) private shares;\n\n    constructor() {\n        _grantRole(ROLE_TEAM, msg.sender);\n    }\n\n    function deposit() public payable {\n        require(hasRole(ROLE_USER, msg.sender), \"Only user can deposit\");\n        require(msg.value > 0, \"Amount should be higher than 0\");\n        if (users_pool[msg.sender] == 0) {\n            holders[total_users] = msg.sender;\n            users_pool[holders[total_users]] = msg.value;\n            total_users = total_users + 1;\n        } else {\n            users_pool[msg.sender] = users_pool[msg.sender] + msg.value;\n        }\n        total_pool = total_pool + msg.value;\n    }\n\n    function withdraw() public {\n        require(hasRole(ROLE_USER, msg.sender), \"Only user can withdrwa\");\n        require(users_pool[msg.sender] > 0, \"The user dont have balance\");\n\n        total_users = total_users - 1;\n        total_pool = total_pool - users_pool[msg.sender];\n        payable(msg.sender).transfer(users_pool[msg.sender]);\n        users_pool[msg.sender] = 0;\n    }\n\n    function balance() public view returns (uint256) {\n        return users_pool[msg.sender];\n    }\n\n    function depositReward() public payable {\n        require(hasRole(ROLE_TEAM, msg.sender), \"Only team can deposit reward\");\n        reward_pool = reward_pool + msg.value;\n        require(total_users > 0, \"Cannot split reward without users\");\n\n        uint256 new_total = 0;\n\n        for (uint256 i = 0; i < total_users; i++) {\n            uint256 user_pool = users_pool[holders[i]];\n            uint256 share = user_pool.div(total_pool);\n            users_pool[holders[i]] = user_pool + reward_pool.mul(share);\n            new_total = new_total + user_pool + reward_pool.mul(share);\n        }\n\n        total_pool = new_total;\n        reward_pool = 0;\n    }\n\n    function balanceReward() public view returns (uint256) {\n        require(hasRole(ROLE_TEAM, msg.sender), \"Only team can deposit reward\");\n        return reward_pool;\n    }\n\n    function addRole(bytes32 role, address account) public {\n        require(hasRole(ROLE_TEAM, msg.sender), \"Only team can asign roles\");\n        _grantRole(role, account);\n    }\n\n    function addUserRole(address account) public {\n        require(hasRole(ROLE_TEAM, msg.sender), \"Only team can asign roles\");\n        _grantRole(ROLE_USER, account);\n    }\n}\n",
  "sourcePath": "/Users/alanhurtarte/project/challenge/contracts/ETHPool.sol",
  "compiler": {
    "name": "solc",
    "version": "0.8.13+commit.abaa5c0e.Emscripten.clang"
  },
  "schemaVersion": "3.4.6",
  "updatedAt": "2022-03-17T04:04:29.177Z",
  "networkType": "ethereum",
  "devdoc": {
    "kind": "dev",
    "methods": {
      "getRoleAdmin(bytes32)": {
        "details": "Returns the admin role that controls `role`. See {grantRole} and {revokeRole}. To change a role's admin, use {_setRoleAdmin}."
      },
      "grantRole(bytes32,address)": {
        "details": "Grants `role` to `account`. If `account` had not been already granted `role`, emits a {RoleGranted} event. Requirements: - the caller must have ``role``'s admin role."
      },
      "hasRole(bytes32,address)": {
        "details": "Returns `true` if `account` has been granted `role`."
      },
      "renounceRole(bytes32,address)": {
        "details": "Revokes `role` from the calling account. Roles are often managed via {grantRole} and {revokeRole}: this function's purpose is to provide a mechanism for accounts to lose their privileges if they are compromised (such as when a trusted device is misplaced). If the calling account had been revoked `role`, emits a {RoleRevoked} event. Requirements: - the caller must be `account`."
      },
      "revokeRole(bytes32,address)": {
        "details": "Revokes `role` from `account`. If `account` had been granted `role`, emits a {RoleRevoked} event. Requirements: - the caller must have ``role``'s admin role."
      },
      "supportsInterface(bytes4)": {
        "details": "See {IERC165-supportsInterface}."
      }
    },
    "version": 1
  },
  "userdoc": {
    "errors": {
      "PRBMath__MulDivFixedPointOverflow(uint256)": [
        {
          "notice": "Emitted when the result overflows uint256."
        }
      ],
      "PRBMath__MulDivOverflow(uint256,uint256)": [
        {
          "notice": "Emitted when the result overflows uint256."
        }
      ]
    },
    "kind": "user",
    "methods": {},
    "version": 1
  }
}