{
  "contractName": "ETHPool",
  "abi": [
    {
      "inputs": [],
      "stateMutability": "nonpayable",
      "type": "constructor"
    },
    {
      "inputs": [
        {
          "internalType": "uint256",
          "name": "prod1",
          "type": "uint256"
        }
      ],
      "name": "PRBMath__MulDivFixedPointOverflow",
      "type": "error"
    },
    {
      "inputs": [
        {
          "internalType": "uint256",
          "name": "prod1",
          "type": "uint256"
        },
        {
          "internalType": "uint256",
          "name": "denominator",
          "type": "uint256"
        }
      ],
      "name": "PRBMath__MulDivOverflow",
      "type": "error"
    },
    {
      "anonymous": false,
      "inputs": [
        {
          "indexed": true,
          "internalType": "bytes32",
          "name": "role",
          "type": "bytes32"
        },
        {
          "indexed": true,
          "internalType": "bytes32",
          "name": "previousAdminRole",
          "type": "bytes32"
        },
        {
          "indexed": true,
          "internalType": "bytes32",
          "name": "newAdminRole",
          "type": "bytes32"
        }
      ],
      "name": "RoleAdminChanged",
      "type": "event"
    },
    {
      "anonymous": false,
      "inputs": [
        {
          "indexed": true,
          "internalType": "bytes32",
          "name": "role",
          "type": "bytes32"
        },
        {
          "indexed": true,
          "internalType": "address",
          "name": "account",
          "type": "address"
        },
        {
          "indexed": true,
          "internalType": "address",
          "name": "sender",
          "type": "address"
        }
      ],
      "name": "RoleGranted",
      "type": "event"
    },
    {
      "anonymous": false,
      "inputs": [
        {
          "indexed": true,
          "internalType": "bytes32",
          "name": "role",
          "type": "bytes32"
        },
        {
          "indexed": true,
          "internalType": "address",
          "name": "account",
          "type": "address"
        },
        {
          "indexed": true,
          "internalType": "address",
          "name": "sender",
          "type": "address"
        }
      ],
      "name": "RoleRevoked",
      "type": "event"
    },
    {
      "inputs": [],
      "name": "DEFAULT_ADMIN_ROLE",
      "outputs": [
        {
          "internalType": "bytes32",
          "name": "",
          "type": "bytes32"
        }
      ],
      "stateMutability": "view",
      "type": "function",
      "constant": true
    },
    {
      "inputs": [],
      "name": "ROLE_TEAM",
      "outputs": [
        {
          "internalType": "bytes32",
          "name": "",
          "type": "bytes32"
        }
      ],
      "stateMutability": "view",
      "type": "function",
      "constant": true
    },
    {
      "inputs": [],
      "name": "ROLE_USER",
      "outputs": [
        {
          "internalType": "bytes32",
          "name": "",
          "type": "bytes32"
        }
      ],
      "stateMutability": "view",
      "type": "function",
      "constant": true
    },
    {
      "inputs": [
        {
          "internalType": "bytes32",
          "name": "role",
          "type": "bytes32"
        }
      ],
      "name": "getRoleAdmin",
      "outputs": [
        {
          "internalType": "bytes32",
          "name": "",
          "type": "bytes32"
        }
      ],
      "stateMutability": "view",
      "type": "function",
      "constant": true
    },
    {
      "inputs": [
        {
          "internalType": "bytes32",
          "name": "role",
          "type": "bytes32"
        },
        {
          "internalType": "address",
          "name": "account",
          "type": "address"
        }
      ],
      "name": "grantRole",
      "outputs": [],
      "stateMutability": "nonpayable",
      "type": "function"
    },
    {
      "inputs": [
        {
          "internalType": "bytes32",
          "name": "role",
          "type": "bytes32"
        },
        {
          "internalType": "address",
          "name": "account",
          "type": "address"
        }
      ],
      "name": "hasRole",
      "outputs": [
        {
          "internalType": "bool",
          "name": "",
          "type": "bool"
        }
      ],
      "stateMutability": "view",
      "type": "function",
      "constant": true
    },
    {
      "inputs": [
        {
          "internalType": "bytes32",
          "name": "role",
          "type": "bytes32"
        },
        {
          "internalType": "address",
          "name": "account",
          "type": "address"
        }
      ],
      "name": "renounceRole",
      "outputs": [],
      "stateMutability": "nonpayable",
      "type": "function"
    },
    {
      "inputs": [
        {
          "internalType": "bytes32",
          "name": "role",
          "type": "bytes32"
        },
        {
          "internalType": "address",
          "name": "account",
          "type": "address"
        }
      ],
      "name": "revokeRole",
      "outputs": [],
      "stateMutability": "nonpayable",
      "type": "function"
    },
    {
      "inputs": [],
      "name": "reward_pool",
      "outputs": [
        {
          "internalType": "uint256",
          "name": "",
          "type": "uint256"
        }
      ],
      "stateMutability": "view",
      "type": "function",
      "constant": true
    },
    {
      "inputs": [
        {
          "internalType": "bytes4",
          "name": "interfaceId",
          "type": "bytes4"
        }
      ],
      "name": "supportsInterface",
      "outputs": [
        {
          "internalType": "bool",
          "name": "",
          "type": "bool"
        }
      ],
      "stateMutability": "view",
      "type": "function",
      "constant": true
    },
    {
      "inputs": [],
      "name": "total_pool",
      "outputs": [
        {
          "internalType": "uint256",
          "name": "",
          "type": "uint256"
        }
      ],
      "stateMutability": "view",
      "type": "function",
      "constant": true
    },
    {
      "inputs": [],
      "name": "total_users",
      "outputs": [
        {
          "internalType": "uint256",
          "name": "",
          "type": "uint256"
        }
      ],
      "stateMutability": "view",
      "type": "function",
      "constant": true
    },
    {
      "inputs": [],
      "name": "deposit",
      "outputs": [],
      "stateMutability": "payable",
      "type": "function",
      "payable": true
    },
    {
      "inputs": [],
      "name": "withdraw",
      "outputs": [],
      "stateMutability": "nonpayable",
      "type": "function"
    },
    {
      "inputs": [],
      "name": "balance",
      "outputs": [
        {
          "internalType": "uint256",
          "name": "",
          "type": "uint256"
        }
      ],
      "stateMutability": "view",
      "type": "function",
      "constant": true
    },
    {
      "inputs": [],
      "name": "depositReward",
      "outputs": [],
      "stateMutability": "payable",
      "type": "function",
      "payable": true
    },
    {
      "inputs": [],
      "name": "balanceReward",
      "outputs": [
        {
          "internalType": "uint256",
          "name": "",
          "type": "uint256"
        }
      ],
      "stateMutability": "view",
      "type": "function",
      "constant": true
    },
    {
      "inputs": [
        {
          "internalType": "bytes32",
          "name": "role",
          "type": "bytes32"
        },
        {
          "internalType": "address",
          "name": "account",
          "type": "address"
        }
      ],
      "name": "addRole",
      "outputs": [],
      "stateMutability": "nonpayable",
      "type": "function"
    },
    {
      "inputs": [
        {
          "internalType": "address",
          "name": "account",
          "type": "address"
        }
      ],
      "name": "addUserRole",
      "outputs": [],
      "stateMutability": "nonpayable",
      "type": "function"
    }
  ],
  "bytecode": "0x60806040526000600155600060025560006003553480156200002057600080fd5b50620000537f765d2ed193fbd282ed21527947ee77384fa6e41387de264bcfdfcaffa63bfe4b336200005960201b60201c565b620001bc565b6200006b82826200014a60201b60201c565b6200014657600160008084815260200190815260200160002060000160008373ffffffffffffffffffffffffffffffffffffffff1673ffffffffffffffffffffffffffffffffffffffff16815260200190815260200160002060006101000a81548160ff021916908315150217905550620000eb620001b460201b60201c565b73ffffffffffffffffffffffffffffffffffffffff168173ffffffffffffffffffffffffffffffffffffffff16837f2f8788117e7eff1d82e926ec794901d17c78024a50270940304540a733656f0d60405160405180910390a45b5050565b600080600084815260200190815260200160002060000160008373ffffffffffffffffffffffffffffffffffffffff1673ffffffffffffffffffffffffffffffffffffffff16815260200190815260200160002060009054906101000a900460ff16905092915050565b600033905090565b6120f680620001cc6000396000f3fe6080604052600436106101145760003560e01c806391d14854116100a0578063b941719e11610064578063b941719e1461036e578063d0e30db014610399578063d547741f146103a3578063e7cc62bd146103cc578063e959b38a146103f757610114565b806391d14854146102855780639fb69b43146102c2578063a217fddf146102ed578063ab646c2614610318578063b69ef8a81461034357610114565b806336568abe116100e757806336568abe146101e75780633ccfd60b1461021057806356cf15ad146102275780635ec2dc8d14610250578063861113791461025a57610114565b806301ffc9a71461011957806316bfdd5614610156578063248a9ca3146101815780632f2ff15d146101be575b600080fd5b34801561012557600080fd5b50610140600480360381019061013b91906116b6565b610420565b60405161014d91906116fe565b60405180910390f35b34801561016257600080fd5b5061016b61049a565b6040516101789190611732565b60405180910390f35b34801561018d57600080fd5b506101a860048036038101906101a39190611783565b6104a0565b6040516101b591906117bf565b60405180910390f35b3480156101ca57600080fd5b506101e560048036038101906101e09190611838565b6104bf565b005b3480156101f357600080fd5b5061020e60048036038101906102099190611838565b6104e8565b005b34801561021c57600080fd5b5061022561056b565b005b34801561023357600080fd5b5061024e60048036038101906102499190611878565b61078b565b005b610258610821565b005b34801561026657600080fd5b5061026f610a6c565b60405161027c9190611732565b60405180910390f35b34801561029157600080fd5b506102ac60048036038101906102a79190611838565b610a72565b6040516102b991906116fe565b60405180910390f35b3480156102ce57600080fd5b506102d7610adc565b6040516102e49190611732565b60405180910390f35b3480156102f957600080fd5b50610302610b4f565b60405161030f91906117bf565b60405180910390f35b34801561032457600080fd5b5061032d610b56565b60405161033a91906117bf565b60405180910390f35b34801561034f57600080fd5b50610358610b7a565b6040516103659190611732565b60405180910390f35b34801561037a57600080fd5b50610383610bc1565b60405161039091906117bf565b60405180910390f35b6103a1610be5565b005b3480156103af57600080fd5b506103ca60048036038101906103c59190611838565b610e64565b005b3480156103d857600080fd5b506103e1610e8d565b6040516103ee9190611732565b60405180910390f35b34801561040357600080fd5b5061041e60048036038101906104199190611838565b610e93565b005b60007f7965db0b000000000000000000000000000000000000000000000000000000007bffffffffffffffffffffffffffffffffffffffffffffffffffffffff1916827bffffffffffffffffffffffffffffffffffffffffffffffffffffffff19161480610493575061049282610f0a565b5b9050919050565b60015481565b6000806000838152602001908152602001600020600101549050919050565b6104c8826104a0565b6104d9816104d4610f74565b610f7c565b6104e38383611019565b505050565b6104f0610f74565b73ffffffffffffffffffffffffffffffffffffffff168173ffffffffffffffffffffffffffffffffffffffff161461055d576040517f08c379a000000000000000000000000000000000000000000000000000000000815260040161055490611928565b60405180910390fd5b61056782826110f9565b5050565b6105957fb8ca5430e403d88aa14f3587e1aa5a2121b1acebf2201dde30800337ea6af07533610a72565b6105d4576040517f08c379a00000000000000000000000000000000000000000000000000000000081526004016105cb90611994565b60405180910390fd5b6000600460003373ffffffffffffffffffffffffffffffffffffffff1673ffffffffffffffffffffffffffffffffffffffff1681526020019081526020016000205411610656576040517f08c379a000000000000000000000000000000000000000000000000000000000815260040161064d90611a00565b60405180910390fd5b60016003546106659190611a4f565b600381905550600460003373ffffffffffffffffffffffffffffffffffffffff1673ffffffffffffffffffffffffffffffffffffffff168152602001908152602001600020546002546106b89190611a4f565b6002819055503373ffffffffffffffffffffffffffffffffffffffff166108fc600460003373ffffffffffffffffffffffffffffffffffffffff1673ffffffffffffffffffffffffffffffffffffffff168152602001908152602001600020549081150290604051600060405180830381858888f19350505050158015610743573d6000803e3d6000fd5b506000600460003373ffffffffffffffffffffffffffffffffffffffff1673ffffffffffffffffffffffffffffffffffffffff16815260200190815260200160002081905550565b6107b57f765d2ed193fbd282ed21527947ee77384fa6e41387de264bcfdfcaffa63bfe4b33610a72565b6107f4576040517f08c379a00000000000000000000000000000000000000000000000000000000081526004016107eb90611acf565b60405180910390fd5b61081e7fb8ca5430e403d88aa14f3587e1aa5a2121b1acebf2201dde30800337ea6af07582611019565b50565b61084b7f765d2ed193fbd282ed21527947ee77384fa6e41387de264bcfdfcaffa63bfe4b33610a72565b61088a576040517f08c379a000000000000000000000000000000000000000000000000000000000815260040161088190611b3b565b60405180910390fd5b346001546108989190611b5b565b6001819055506000600354116108e3576040517f08c379a00000000000000000000000000000000000000000000000000000000081526004016108da90611c23565b60405180910390fd5b6000805b600354811015610a59576000600460006005600085815260200190815260200160002060009054906101000a900473ffffffffffffffffffffffffffffffffffffffff1673ffffffffffffffffffffffffffffffffffffffff1673ffffffffffffffffffffffffffffffffffffffff168152602001908152602001600020549050600061097f600254836111da90919063ffffffff16565b9050610996816001546111f790919063ffffffff16565b826109a19190611b5b565b600460006005600087815260200190815260200160002060009054906101000a900473ffffffffffffffffffffffffffffffffffffffff1673ffffffffffffffffffffffffffffffffffffffff1673ffffffffffffffffffffffffffffffffffffffff16815260200190815260200160002081905550610a2c816001546111f790919063ffffffff16565b8285610a389190611b5b565b610a429190611b5b565b935050508080610a5190611c43565b9150506108e7565b5080600281905550600060018190555050565b60025481565b600080600084815260200190815260200160002060000160008373ffffffffffffffffffffffffffffffffffffffff1673ffffffffffffffffffffffffffffffffffffffff16815260200190815260200160002060009054906101000a900460ff16905092915050565b6000610b087f765d2ed193fbd282ed21527947ee77384fa6e41387de264bcfdfcaffa63bfe4b33610a72565b610b47576040517f08c379a0000000000000000000000000000000000000000000000000000000008152600401610b3e90611b3b565b60405180910390fd5b600154905090565b6000801b81565b7f765d2ed193fbd282ed21527947ee77384fa6e41387de264bcfdfcaffa63bfe4b81565b6000600460003373ffffffffffffffffffffffffffffffffffffffff1673ffffffffffffffffffffffffffffffffffffffff16815260200190815260200160002054905090565b7fb8ca5430e403d88aa14f3587e1aa5a2121b1acebf2201dde30800337ea6af07581565b610c0f7fb8ca5430e403d88aa14f3587e1aa5a2121b1acebf2201dde30800337ea6af07533610a72565b610c4e576040517f08c379a0000000000000000000000000000000000000000000000000000000008152600401610c4590611cd7565b60405180910390fd5b60003411610c91576040517f08c379a0000000000000000000000000000000000000000000000000000000008152600401610c8890611d43565b60405180910390fd5b6000600460003373ffffffffffffffffffffffffffffffffffffffff1673ffffffffffffffffffffffffffffffffffffffff1681526020019081526020016000205403610dbf573360056000600354815260200190815260200160002060006101000a81548173ffffffffffffffffffffffffffffffffffffffff021916908373ffffffffffffffffffffffffffffffffffffffff160217905550346004600060056000600354815260200190815260200160002060009054906101000a900473ffffffffffffffffffffffffffffffffffffffff1673ffffffffffffffffffffffffffffffffffffffff1673ffffffffffffffffffffffffffffffffffffffff168152602001908152602001600020819055506001600354610db49190611b5b565b600381905550610e4e565b34600460003373ffffffffffffffffffffffffffffffffffffffff1673ffffffffffffffffffffffffffffffffffffffff16815260200190815260200160002054610e0a9190611b5b565b600460003373ffffffffffffffffffffffffffffffffffffffff1673ffffffffffffffffffffffffffffffffffffffff168152602001908152602001600020819055505b34600254610e5c9190611b5b565b600281905550565b610e6d826104a0565b610e7e81610e79610f74565b610f7c565b610e8883836110f9565b505050565b60035481565b610ebd7f765d2ed193fbd282ed21527947ee77384fa6e41387de264bcfdfcaffa63bfe4b33610a72565b610efc576040517f08c379a0000000000000000000000000000000000000000000000000000000008152600401610ef390611acf565b60405180910390fd5b610f068282611019565b5050565b60007f01ffc9a7000000000000000000000000000000000000000000000000000000007bffffffffffffffffffffffffffffffffffffffffffffffffffffffff1916827bffffffffffffffffffffffffffffffffffffffffffffffffffffffff1916149050919050565b600033905090565b610f868282610a72565b61101557610fab8173ffffffffffffffffffffffffffffffffffffffff16601461120b565b610fb98360001c602061120b565b604051602001610fca929190611e75565b6040516020818303038152906040526040517f08c379a000000000000000000000000000000000000000000000000000000000815260040161100c9190611ef9565b60405180910390fd5b5050565b6110238282610a72565b6110f557600160008084815260200190815260200160002060000160008373ffffffffffffffffffffffffffffffffffffffff1673ffffffffffffffffffffffffffffffffffffffff16815260200190815260200160002060006101000a81548160ff02191690831515021790555061109a610f74565b73ffffffffffffffffffffffffffffffffffffffff168173ffffffffffffffffffffffffffffffffffffffff16837f2f8788117e7eff1d82e926ec794901d17c78024a50270940304540a733656f0d60405160405180910390a45b5050565b6111038282610a72565b156111d657600080600084815260200190815260200160002060000160008373ffffffffffffffffffffffffffffffffffffffff1673ffffffffffffffffffffffffffffffffffffffff16815260200190815260200160002060006101000a81548160ff02191690831515021790555061117b610f74565b73ffffffffffffffffffffffffffffffffffffffff168173ffffffffffffffffffffffffffffffffffffffff16837ff6391f5c32d9c69d2a47ea670b442974b53935d1edc7fd64eb21e047a839171b60405160405180910390a45b5050565b60006111ef83670de0b6b3a764000084611447565b905092915050565b6000611203838361155c565b905092915050565b60606000600283600261121e9190611f1b565b6112289190611b5b565b67ffffffffffffffff81111561124157611240611f75565b5b6040519080825280601f01601f1916602001820160405280156112735781602001600182028036833780820191505090505b5090507f3000000000000000000000000000000000000000000000000000000000000000816000815181106112ab576112aa611fa4565b5b60200101907effffffffffffffffffffffffffffffffffffffffffffffffffffffffffffff1916908160001a9053507f78000000000000000000000000000000000000000000000000000000000000008160018151811061130f5761130e611fa4565b5b60200101907effffffffffffffffffffffffffffffffffffffffffffffffffffffffffffff1916908160001a9053506000600184600261134f9190611f1b565b6113599190611b5b565b90505b60018111156113f9577f3031323334353637383961626364656600000000000000000000000000000000600f86166010811061139b5761139a611fa4565b5b1a60f81b8282815181106113b2576113b1611fa4565b5b60200101907effffffffffffffffffffffffffffffffffffffffffffffffffffffffffffff1916908160001a905350600485901c9450806113f290611fd3565b905061135c565b506000841461143d576040517f08c379a000000000000000000000000000000000000000000000000000000000815260040161143490612048565b60405180910390fd5b8091505092915050565b60008060008019858709858702925082811083820303915050600081036114825783828161147857611477612068565b5b0492505050611555565b8381106114c85780846040517f773cc18c0000000000000000000000000000000000000000000000000000000081526004016114bf929190612097565b60405180910390fd5b60008486880990508281118203915080830392506000600186190186169050808604955080840493506001818260000304019050808302841793506000600287600302189050808702600203810290508087026002038102905080870260020381029050808702600203810290508087026002038102905080870260020381029050808502955050505050505b9392505050565b60008060008019848609848602925082811083820303915050670de0b6b3a764000081106115c157806040517fd31b34020000000000000000000000000000000000000000000000000000000081526004016115b89190611732565b60405180910390fd5b600080670de0b6b3a764000086880991506706f05b59d3b1ffff821190506000830361160d5780670de0b6b3a76400008581611600576115ff612068565b5b0401945050505050611653565b807faccb18165bd6fe31ae1cf318dc5b51eee0e1ba569b88cd74c1773b91fac1066960016204000080600003040186851186030262040000858803041702019450505050505b92915050565b600080fd5b60007fffffffff0000000000000000000000000000000000000000000000000000000082169050919050565b6116938161165e565b811461169e57600080fd5b50565b6000813590506116b08161168a565b92915050565b6000602082840312156116cc576116cb611659565b5b60006116da848285016116a1565b91505092915050565b60008115159050919050565b6116f8816116e3565b82525050565b600060208201905061171360008301846116ef565b92915050565b6000819050919050565b61172c81611719565b82525050565b60006020820190506117476000830184611723565b92915050565b6000819050919050565b6117608161174d565b811461176b57600080fd5b50565b60008135905061177d81611757565b92915050565b60006020828403121561179957611798611659565b5b60006117a78482850161176e565b91505092915050565b6117b98161174d565b82525050565b60006020820190506117d460008301846117b0565b92915050565b600073ffffffffffffffffffffffffffffffffffffffff82169050919050565b6000611805826117da565b9050919050565b611815816117fa565b811461182057600080fd5b50565b6000813590506118328161180c565b92915050565b6000806040838503121561184f5761184e611659565b5b600061185d8582860161176e565b925050602061186e85828601611823565b9150509250929050565b60006020828403121561188e5761188d611659565b5b600061189c84828501611823565b91505092915050565b600082825260208201905092915050565b7f416363657373436f6e74726f6c3a2063616e206f6e6c792072656e6f756e636560008201527f20726f6c657320666f722073656c660000000000000000000000000000000000602082015250565b6000611912602f836118a5565b915061191d826118b6565b604082019050919050565b6000602082019050818103600083015261194181611905565b9050919050565b7f4f6e6c7920757365722063616e20776974686472776100000000000000000000600082015250565b600061197e6016836118a5565b915061198982611948565b602082019050919050565b600060208201905081810360008301526119ad81611971565b9050919050565b7f546865207573657220646f6e7420686176652062616c616e6365000000000000600082015250565b60006119ea601a836118a5565b91506119f5826119b4565b602082019050919050565b60006020820190508181036000830152611a19816119dd565b9050919050565b7f4e487b7100000000000000000000000000000000000000000000000000000000600052601160045260246000fd5b6000611a5a82611719565b9150611a6583611719565b925082821015611a7857611a77611a20565b5b828203905092915050565b7f4f6e6c79207465616d2063616e20617369676e20726f6c657300000000000000600082015250565b6000611ab96019836118a5565b9150611ac482611a83565b602082019050919050565b60006020820190508181036000830152611ae881611aac565b9050919050565b7f4f6e6c79207465616d2063616e206465706f7369742072657761726400000000600082015250565b6000611b25601c836118a5565b9150611b3082611aef565b602082019050919050565b60006020820190508181036000830152611b5481611b18565b9050919050565b6000611b6682611719565b9150611b7183611719565b9250827fffffffffffffffffffffffffffffffffffffffffffffffffffffffffffffffff03821115611ba657611ba5611a20565b5b828201905092915050565b7f43616e6e6f742073706c69742072657761726420776974686f7574207573657260008201527f7300000000000000000000000000000000000000000000000000000000000000602082015250565b6000611c0d6021836118a5565b9150611c1882611bb1565b604082019050919050565b60006020820190508181036000830152611c3c81611c00565b9050919050565b6000611c4e82611719565b91507fffffffffffffffffffffffffffffffffffffffffffffffffffffffffffffffff8203611c8057611c7f611a20565b5b600182019050919050565b7f4f6e6c7920757365722063616e206465706f7369740000000000000000000000600082015250565b6000611cc16015836118a5565b9150611ccc82611c8b565b602082019050919050565b60006020820190508181036000830152611cf081611cb4565b9050919050565b7f416d6f756e742073686f756c6420626520686967686572207468616e20300000600082015250565b6000611d2d601e836118a5565b9150611d3882611cf7565b602082019050919050565b60006020820190508181036000830152611d5c81611d20565b9050919050565b600081905092915050565b7f416363657373436f6e74726f6c3a206163636f756e7420000000000000000000600082015250565b6000611da4601783611d63565b9150611daf82611d6e565b601782019050919050565b600081519050919050565b60005b83811015611de3578082015181840152602081019050611dc8565b83811115611df2576000848401525b50505050565b6000611e0382611dba565b611e0d8185611d63565b9350611e1d818560208601611dc5565b80840191505092915050565b7f206973206d697373696e6720726f6c6520000000000000000000000000000000600082015250565b6000611e5f601183611d63565b9150611e6a82611e29565b601182019050919050565b6000611e8082611d97565b9150611e8c8285611df8565b9150611e9782611e52565b9150611ea38284611df8565b91508190509392505050565b6000601f19601f8301169050919050565b6000611ecb82611dba565b611ed581856118a5565b9350611ee5818560208601611dc5565b611eee81611eaf565b840191505092915050565b60006020820190508181036000830152611f138184611ec0565b905092915050565b6000611f2682611719565b9150611f3183611719565b9250817fffffffffffffffffffffffffffffffffffffffffffffffffffffffffffffffff0483118215151615611f6a57611f69611a20565b5b828202905092915050565b7f4e487b7100000000000000000000000000000000000000000000000000000000600052604160045260246000fd5b7f4e487b7100000000000000000000000000000000000000000000000000000000600052603260045260246000fd5b6000611fde82611719565b915060008203611ff157611ff0611a20565b5b600182039050919050565b7f537472696e67733a20686578206c656e67746820696e73756666696369656e74600082015250565b60006120326020836118a5565b915061203d82611ffc565b602082019050919050565b6000602082019050818103600083015261206181612025565b9050919050565b7f4e487b7100000000000000000000000000000000000000000000000000000000600052601260045260246000fd5b60006040820190506120ac6000830185611723565b6120b96020830184611723565b939250505056fea2646970667358221220a9634ce357321b0aefbd074949bc53c2ceca0cbc71e0b69584eb8995690ba4e664736f6c634300080d0033",
  "immutableReferences": {},
  "source": "// SPDX-License-Identifier: MIT\npragma solidity >=0.8.0 <0.9.0;\n\nimport \"@openzeppelin/contracts/access/AccessControl.sol\";\nimport \"prb-math/contracts/PRBMathSD59x18.sol\";\nimport \"prb-math/contracts/PRBMathUD60x18.sol\";\n\ncontract ETHPool is AccessControl {\n    using PRBMathUD60x18 for uint256;\n    using PRBMathSD59x18 for int256;\n\n    bytes32 public constant ROLE_TEAM = keccak256(\"ROLE_TEAM\");\n    bytes32 public constant ROLE_USER = keccak256(\"ROLE_USER\");\n    uint256 public reward_pool = 0;\n    uint256 public total_pool = 0;\n    uint256 public total_users = 0;\n    mapping(address => uint256) users_pool;\n    mapping(uint256 => address) private holders;\n    mapping(address => uint256) private shares;\n\n    constructor() {\n        _grantRole(ROLE_TEAM, msg.sender);\n    }\n\n    function deposit() public payable {\n        require(hasRole(ROLE_USER, msg.sender), \"Only user can deposit\");\n        require(msg.value > 0, \"Amount should be higher than 0\");\n        if (users_pool[msg.sender] == 0) {\n            holders[total_users] = msg.sender;\n            users_pool[holders[total_users]] = msg.value;\n            total_users = total_users + 1;\n        } else {\n            users_pool[msg.sender] = users_pool[msg.sender] + msg.value;\n        }\n        total_pool = total_pool + msg.value;\n    }\n\n    function withdraw() public {\n        require(hasRole(ROLE_USER, msg.sender), \"Only user can withdrwa\");\n        require(users_pool[msg.sender] > 0, \"The user dont have balance\");\n\n        total_users = total_users - 1;\n        total_pool = total_pool - users_pool[msg.sender];\n        payable(msg.sender).transfer(users_pool[msg.sender]);\n        users_pool[msg.sender] = 0;\n    }\n\n    function balance() public view returns (uint256) {\n        return users_pool[msg.sender];\n    }\n\n    function depositReward() public payable {\n        require(hasRole(ROLE_TEAM, msg.sender), \"Only team can deposit reward\");\n        reward_pool = reward_pool + msg.value;\n        require(total_users > 0, \"Cannot split reward without users\");\n\n        uint256 new_total = 0;\n\n        for (uint256 i = 0; i < total_users; i++) {\n            uint256 user_pool = users_pool[holders[i]];\n            uint256 share = user_pool.div(total_pool);\n            users_pool[holders[i]] = user_pool + reward_pool.mul(share);\n            new_total = new_total + user_pool + reward_pool.mul(share);\n        }\n\n        total_pool = new_total;\n        reward_pool = 0;\n    }\n\n    function balanceReward() public view returns (uint256) {\n        require(hasRole(ROLE_TEAM, msg.sender), \"Only team can deposit reward\");\n        return reward_pool;\n    }\n\n    function addRole(bytes32 role, address account) public {\n        require(hasRole(ROLE_TEAM, msg.sender), \"Only team can asign roles\");\n        _grantRole(role, account);\n    }\n\n    function addUserRole(address account) public {\n        require(hasRole(ROLE_TEAM, msg.sender), \"Only team can asign roles\");\n        _grantRole(ROLE_USER, account);\n    }\n}\n",
  "sourcePath": "/Users/alanhurtarte/project/challenge/contracts/ETHPool.sol",
  "compiler": {
    "name": "solc",
    "version": "0.8.13+commit.abaa5c0e.Emscripten.clang"
  },
  "schemaVersion": "3.4.6",
  "updatedAt": "2022-03-17T14:31:58.155Z",
  "networkType": "ethereum",
  "devdoc": {
    "kind": "dev",
    "methods": {
      "getRoleAdmin(bytes32)": {
        "details": "Returns the admin role that controls `role`. See {grantRole} and {revokeRole}. To change a role's admin, use {_setRoleAdmin}."
      },
      "grantRole(bytes32,address)": {
        "details": "Grants `role` to `account`. If `account` had not been already granted `role`, emits a {RoleGranted} event. Requirements: - the caller must have ``role``'s admin role."
      },
      "hasRole(bytes32,address)": {
        "details": "Returns `true` if `account` has been granted `role`."
      },
      "renounceRole(bytes32,address)": {
        "details": "Revokes `role` from the calling account. Roles are often managed via {grantRole} and {revokeRole}: this function's purpose is to provide a mechanism for accounts to lose their privileges if they are compromised (such as when a trusted device is misplaced). If the calling account had been revoked `role`, emits a {RoleRevoked} event. Requirements: - the caller must be `account`."
      },
      "revokeRole(bytes32,address)": {
        "details": "Revokes `role` from `account`. If `account` had been granted `role`, emits a {RoleRevoked} event. Requirements: - the caller must have ``role``'s admin role."
      },
      "supportsInterface(bytes4)": {
        "details": "See {IERC165-supportsInterface}."
      }
    },
    "version": 1
  },
  "userdoc": {
    "errors": {
      "PRBMath__MulDivFixedPointOverflow(uint256)": [
        {
          "notice": "Emitted when the result overflows uint256."
        }
      ],
      "PRBMath__MulDivOverflow(uint256,uint256)": [
        {
          "notice": "Emitted when the result overflows uint256."
        }
      ]
    },
    "kind": "user",
    "methods": {},
    "version": 1
  }
}